:020000000C945E
:1000020062000C9400000C9400000C9400000C940C
:1000120000000C9400000C9400000C9400000C945E
:1000220000000C9400000C9400000C9400000C944E
:1000320000000C9400000C9400000C9400000C943E
:100042008F000C9400000C9400000C9400000C949F
:1000520000000000C842CDCCCC3C82A8FB36000098
:10006200803F543D25332E31662053503D25322E9C
:100072003166200A4B703D2566200A4B693D256694
:10008200200A4B643D25660080C02D4E414E000083
:1000920001002D4E414E00494E4600000400A002D0
:1000A20054000400B40258000400B8025C000400CA
:1000B200BC0260000200D0028A000100D402920059
:1000C2000000F894EE27ECBBF1E0FBBFEBBFE5BF0D
:1000D2008DE0A2E0BB27ED938A95E9F780E098E0F6
:1000E200A0E6ED930197E9F7EEE9F0E085919591AD
:1000F200009761F0A591B59105901590BF01F001AF
:1001020005900D920197E1F7FB01F0CFEFE5EDBF0E
:10011200E8E0EEBFC0E6D2E00C94CD000A921A925B
:100122006A937A938A939A93AA93BA93EA93FA93E5
:10013200EFB7EA931A930A9304B115B1F80166274F
:1001420077270E94D708AAE0B7ED83E290E40E94E5
:100152006109DF01CB01E0E0F0EC6FE774E40E949B
:10016200AF090E9420070E942907E0E0F0E068EC56
:1001720072E40E9461090E94200709911991E99194
:10018200EFBFF991E991B991A991999189917991E9
:100192006991199009901895A0E10E948702EBB726
:1001A200E064EBBFE2E0E5BFE0E0E4BFE0E4EABF29
:1001B200E0ECE7B9EDE8E6B97894EDECE6B90E9437
:1001C20029070E9432070E940A09E093A802F093CD
:1001D200A9026093AA027093AB020E943B07A0910E
:1001E200B402B091B5028091B6029091B7020E941A
:1001F2006109E093C002F093C1026093C20270935E
:10020200C3020E943B07A091B802B091B90280914B
:10021200BA029091BB020E946109A091B002B09112
:10022200B1028091B2029091B3020E941109E0934F
:10023200C402F093C5026093C6027093C702A091F4
:10024200AC02B091AD028091AE029091AF020E94D9
:100252003B070E940A09A091BC02B091BD028091A5
:10026200BE029091BF020E946109E093C802F0931E
:10027200C9026093CA027093CB020E944407A09104
:10028200C002B091C1028091C2029091C3020E9449
:100292001109A091C802B091C9028091CA0290913D
:1002A200CB020E941109A0E0B0E088EC92E40E9427
:1002B20061090E944D070E9456070E945F070E9433
:1002C200F40920F40E945F070E944D070E9456071E
:1002D200E0E0F0E06FE774E40E94F40909F008F44A
:1002E20002C00E944D070E944407E093B002F093BF
:1002F200B1026093B2027093B3020E943B07E09393
:10030200AC02F093AD026093AE027093AF02E09143
:10031200CC02F091CD026091CE027091CF020E9488
:100322009E082F01E52DF0704F01F201F0703F01A0
:100332008C9A8D9AE3EEEFBDECE0EEBDE0E0EDBD10
:10034200ECBDE7BDE6BDEBBDEABD89BC68BCE0E63D
:10035200F2E0FA93EA93E4E6F0E0FA93EA93E091AA
:10036200A402F091A5026091A6027091A7020E94D8
:10037200980A0E9432070E94980AE091C002F09106
:10038200C1026091C2027091C3020E94980A0E9447
:1003920044070E94980AE091C802F091C902609154
:1003A200CA027091CB020E94980A84E10E94E00581
:1003B20068960E943802A0E6B2E00E946502A8ECAC
:1003C200B0E00E946108EDECE6B9F9CEFFCFFFE0A4
:1003D200FA95F1F70895A4B3AF70A4BBA99AA898AF
:1003E200F6DFAA9AF4DFA3B3AA98F1DFAA9AEFDFA5
:1003F200AA98A7FDF5CF0895A07FAB2BA5BBAA9A1B
:100402000E94E801AA980E94E8010895AA93A99877
:10041200A4B3A76FA4BBB5B3BF70A881EDDFA88159
:10042200A295EADFA99A0C94B802AA9A0E94E8015E
:10043200E3B3AA980E94E801E07F08950E94E801D0
:10044200F4DFAE2FF2DFA998E295EA2B0895AA9382
:100452000E94EC01E881F0E0E053FD4FE081A981C8
:10046200AE0F0E940702B980A880229608950E94CA
:10047200EC01A2E00E9407020E94EC01ACE00E94A3
:1004820007020E94EC01A1E00E940702E0E0AE2E0A
:10049200BE2E0895AA93EF93FF93A8816894AA3081
:1004A20019F0E894BD1430F0A394E0E0EA93AA2D89
:1004B200CEDF36F0B3948FDFA89AA8810E9407029C
:1004C200FF91EF910C94B802BA93AA931A93A9815F
:1004D200BA81ED91A983BA831E2FE03019F0A12FC2
:1004E200D9DFF5CF188123960895AA27BB27119744
:1004F200F1F70895AA93A998A4B3A76FA4BBB5B3C3
:10050200BF70A8810E94FD01A99A31C0AA93AA983E
:10051200A898D880E881E058E093D202E881E054BC
:10052200E093D3020E9464070E9464070E9464075A
:10053200DCDFA0E2DFDFD9DFA8E20E946907A4E0E6
:100542000E946907A5E80E946907A4B3AF70A4BB23
:10055200A99A0E941F02E53011F0E0E008C00E9453
:10056200EC01A6E00E9407020E943802E1E0219617
:100572000895BA93AA931A930A93AA81BB811296F9
:100582000E947F0A309729F1AA81BB8114960E94AA
:100592007F0A8F01309761F00230E0E01E0780F0A1
:1005A200F80131978F01AA81BB811496ED93FC93D8
:1005B200AA81BB8112960E946D073197AC81A083FC
:1005C200AA81BB810E947F0AFF2312F00E946D075D
:1005D20006C0AA81BB81EFEFFFEFED93FC93198177
:1005E2000881259608950E947307E0E8EA83EFE305
:1005F200EB830E94B50AEE85FF85EF3FAFEFFA0766
:1006020049F4E885F985FA93EA93ACE8B0E00E94F0
:100612001406B7C0EF3FAFE7FA0749F4E885F9855A
:10062200FA93EA93ADE8B0E00E941406AAC0AB8543
:10063200A73010F0E6E0EB871B85E12F1150E03088
:1006420019F00E947A07F9CFEC85FD856E857F85CA
:100652000E94AF0A21F430E00E947A072DC03B8548
:100662000E94890709F008F40BC00E947A070E94D1
:10067200890728F00E9494070E949907F8CF0DC0BD
:100682000E94890740F40E9494070E94A5070E94D5
:10069200AC073150F5CF0E947A07EC85FD856E8557
:1006A2007F850E94B1070E94AC070E94890720F053
:1006B2000E9494070E94990710E0EB85E117A8F1C8
:1006C200AC81BD818E819F810E94B8070E94B107D3
:1006D200DF01CB010E946B06EC83FD836E837F8377
:1006E2000E9494070E94AF090E949E080E2F0E944A
:1006F200BF070E94C607FF27662777270E94D708F1
:10070200AC81BD818E819F810E9461090E94940704
:100712000E94CB070E94AC07E12F1F5FE03069F611
:100722000E94BF07EEE2EC93C8CF0E94D007319738
:10073200AA85A08330302CF43195A885B985EDE2E5
:1007420003C0A885B985EBE2EC930E94D0070E9412
:10075200D0073197BF01A32FEAE00E94390AE05D7A
:10076200DB01EC930E94D0073197BF01A32FEAE08F
:100772000E94630AE05DDB01EC93A885B985E0E0A5
:10078200EC930E94BC0A60960895BA93AA93EF97DD
:1007920061970E94B30A10E0FE01E85AFF4F0190F0
:1007A200F081E02DE887F987FE01EA5AFF4F0190B8
:1007B200F081E02DEE83FF83AE81BF81E0E0F0E0C7
:1007C200ED93FC93DE01A45ABF4F0E946D0731974F
:1007D200E4912E2FE03009F4E9C1E12FE03039F441
:1007E200253211F411E002C00E94D607DEC1E130C9
:1007F200C1F4253219F40E94D607D6C112E0E0E016
:10080200ED8B00E02D3211F401E0CFC12B3219F44F
:10081200EBE2ED8BCAC1203219F4E0E2ED8BC5C1E7
:1008220002C0E23039F450E013E0203311F40068E2
:10083200BCC102C0E33091F4203310F02A3308F037
:1008420007C0AAE05A9F502DE22FE0535E0FADC1C0
:1008520040E02E3211F414E0A8C10FC0E43099F444
:10086200203310F02A3308F008C00062AAE04A9F41
:10087200402DE22FE0534E0F98C12C3619F402603E
:1008820015E093C103C0E53009F08FC1E22FE336D2
:1008920059F40E94DD070E94E4070E94DD07A4814B
:1008A200AA930E94EB0780C1E53411F0E53609F402
:1008B20003C0E63609F048C0FE017696EE87FF8750
:1008C2000E94F1070E94830A0E94F8070E94FD0716
:1008D200AD85AA2332F0AD89AB3259F0A03281F056
:1008E20017C00E94FF070E946B080E94F807EDE202
:1008F200ED8B07FF05C0ED89EA930E94EB0708C064
:10090200EE85FF853196EE87FF873197AD89A0830B
:1009120005FF46E0263651F40E94FF070E94980A1E
:100922004A93AB89BC890E94820609C00E94FF07D4
:100932000E94980A4A932A93AC89BD8954DEFE012B
:1009420076960E9404081EC0E33739F40E94FD0720
:100952000E940C080E9404080EC0E037C1F40E94F5
:10096200FD070E940C08EE87FF87AE85BF850E94B7
:100972002D061E2F08600F77403011F0411708F046
:1009820001C0142F40E0E0E0EC8B30E06DC0E436B3
:1009920011F0E93611F4046002C0E537A1F4EAE08F
:1009A200EC8B01FF08C0E0E0FAEC6AE97BE30E940D
:1009B20011081AE022C0E0E1F7E260E070E00E9474
:1009C200110815E01AC0E83511F4086003C0E837D1
:1009D20009F0EAC0E0E1EC8B01FF08C0E0E0F0E0E2
:1009E20060E070E10E94110818E007C0E0E0F0E169
:1009F20060E070E00E94110814E0403011F00F77BF
:100A020001C041E001FF08C00E94FD070E94F107FA
:100A120014960E94830A0FC002FF07C00E94FD07BE
:100A22000E940C080E94260A06C00E94FD070E942E
:100A32000C0866277727EA87FB876C877D8702FF8A
:100A420012C0AD85AA2342F40E94FF070E94180A31
:100A52000E94F807EDE2ED8BED89E03019F01F5F9F
:100A62004F5F01C00B7F342F00FD14C0151710F427
:100A7200351708F00FC007FF08C002FF04C00B7F44
:100A82002D89115001C020E301C020E20E94D60747
:100A92005150ECCF141790F4006102FF06C00E947F
:100AA200160809F0515011504150E0E3EA930E94B8
:100AB200EB07503009F051504150ECCF312FEC8907
:100AC200E030B9F43030A1F003FF06C0EE85FF85B7
:100AD2002591EE87FF8705C0AE85BF852D91AE8734
:100AE200BF870E94D607503009F051503150EACFEB
:100AF20051C00E9428080E943E0A2E2F2A3030F050
:100B020003FF02C0295C01C0295A01C0205D04FD17
:100B120021C0213360F4A889B9898A899B89A130CF
:100B2200E0E0BE07E0E08E07E0E09E0709F40BC0BC
:100B3200431740F4531710F000FF01C010C020E229
:100B420007FF08C020E3006102FF04C00E941608EC
:100B520009F051500E94D607503009F051503150DF
:100B62000E9428080E946F0A0E94F807EC89A8894F
:100B7200B9898A899B89FF27662777270E943E0ABF
:100B82000E941108E889F9896A897B890E94AF0A63
:100B920009F0AFCF00FF08C0503031F05150E0E211
:100BA200EA930E94EB07F8CF10E00CCEAE81BF8132
:100BB2000E947F0A0E94BA0AEF966F960895FF92EA
:100BC200F82E26970E94B50A0E943108309719F430
:100BD200EFEFFFEF23C0DE0116960E94140A8D018B
:100BE2000E943108EE83FF83E0E0E887E987DE01B7
:100BF2001A960E94140A0E947F0AFA93EA931A93A1
:100C02000A93EAEBF2E0FA93EA93DE011A96BDDD6B
:100C12009F01AE81BF81E0E0EC93F9010E94BC0A22
:100C22002A96FF900895BA93AA93E991F991A9910E
:100C3200B991CD0105900D920020E1F7FC010895D4
:100C4200BA93AA93A991B991EE27FF276D916623D2
:100C520011F03196FBCF0895BA93AA93AA27BB2726
:100C6200E991F9910590002011F01196FBCFFD0159
:100C720008950E949D0A7B816A81F981E88177FB50
:100C8200770F67FD7160972F9E5781F078F098314A
:100C920090F4AA27BB27882708948795B795A7952C
:100CA2009A95D1F7EA23FB23682305C0E8947727B6
:100CB200EE27FF2766276F77769508F4606877F945
:100CC200A991B99189919991EA17FB076807790768
:100CD20097FB08950E949D0A0E948E0A0E943A067E
:100CE2000E94930A19F40E94890A09C0E6F70E9439
:100CF200890AA0E0B0E080E89FE30E940A092496F6
:100D02000895F0D0E0E0EA83EFE3EB831A930A93CD
:100D1200EB85FC85EF3FAFEFFA0731F4A8D1A4E9E8
:100D2200B0E00E94140687C0EF3FAFE7FA0731F444
:100D32009ED1A5E9B0E00E9414067DC0AC85AA232D
:100D420052F4E985FA856B857C850E946B0894D103
:100D520098D1EDE2EC93A885A73010F0E6E0E887A1
:100D62001885E12F1150E03021F092D100D195D1B8
:100D7200F8CF98D10E9411097FD110E09FD08DD178
:100D820091D10E94F40968F083D1DED086D11F5F31
:100D9200173230F06CD1A9E9B0E00E9414064BC0C2
:100DA200EFCF103021F46DD1E0E3EC9320C0E12FBE
:100DB2001150E030E1F06CD1DAD0D2D0DF01CB01BA
:100DC2000E946B066AD16ED10E94AF090E949E08F2
:100DD2000E2F57D1DAD0F0E05BD10E94260A0E9492
:100DE200D7080E94610967D1D5D046D1E0CFE88506
:100DF200E030E9F046D1EEE2EC93E885E150E88795
:100E0200EF5FA9F058D1A0D037D1E985FA856B857B
:100E12007C850E949E080E2F34D1B7D0F0E04BD1D2
:100E22000E94260A0E94D708B5D026D1E6CFAE810D
:100E3200BF81E0E0EC93198108812D960895E0933B
:100E4200A402F093A5026093A6027093A7020895EC
:100E5200A091A402B091A5028091A6029091A7024E
:100E62000895E091A002F091A1026091A202709116
:100E7200A3020895E091A802F091A9026091AA024A
:100E82007091AB020895E091C402F091C5026091A5
:100E9200C6027091C7020895E093CC02F093CD028E
:100EA2006093CE027093CF020895A091CC02B091CC
:100EB200CD028091CE029091CF020895E0E0F0E061
:100EC20060E87FE308950E947602A0E30C947B021F
:100ED2000E9407020C947602ED91FD913196FE93E9
:100EE200EE930895BA93AA932497E0E0E883E98306
:100EF2000895AC81BD818E819F81E0E0F0E060E2E7
:100F020071E40E946109EC83FD836E837F830895FF
:100F1200EC81FD816E817F81AC85BD858E859F854B
:100F22000E94F4090895AC85BD858E859F8508953C
:100F3200EDECFCEC6CEC7DE30E946109EC87FD8733
:100F42006E877F873F5F0895E0E0F0E060E271E442
:100F52000E9461090895EC87FD876E877F87089557
:100F6200A0E0B0E080E09FE30E9411090895EDEC5B
:100F7200FCEC6CEC7DE30E9461090895A885B985BB
:100F82001196A887B98711970895E02FE05DEC9339
:100F9200E02F08950E94A20A0E940A090895E88596
:100FA200F9853196E887F98708952A93AF81B88544
:100FB200E985FA8509950895FE01E65AFF4F0190E9
:100FC200F081E02D08953497DE01A65ABF4FED93CC
:100FD200FC930895AF81B885E985FA85099508954E
:100FE200DE01A65ABF4F0D90BC91A02D0895EA874D
:100FF200FB876C877D870895DFDFE5CFEA85FB8578
:101002006C857D850895EE87FF87AE85BF850E943A
:1010120021061E2F0895E4DF14960E947F0A089588
:10102200E88BF98B6A8B7B8B08950B7FED89EA93B2
:10103200DE01A95ABF4F0D90BC91A02DFE01E75AC7
:10104200FF4F0190F081E02D099550300895E88915
:10105200F9896A897B89AA85BB858C859D850895D6
:10106200DE011C960E94140A0E947F0A0895EE81F6
:10107200FF81FA93EA930895E987FA876B877C8761
:101082000895AE81BF811196AE83BF8311970895F3
:10109200AA81BB818C819D810895EA83FB836C8345
:1010A2007D830895EA81FB816C817D81A985BA8562
:1010B2008B859C850895A985BA858B859C85089525
:1010C200109639F0A89580ED97E00197F1F7119706
:1010D200C9F7089530976040704009F0705808953C
:1010E200552342F4503811F4E0FF04C03196691FD1
:1010F200791F6BF050E8572711F45F93CFC05F3F21
:1011020031F0660F000C57956795752F08955F9320
:1011120000200AF0CFC0C8C050E8192E1522880F4F
:10112200991F9527550F879550E8072E0522660FC0
:10113200771F7527550F67950895689401C0E89445
:101142005F93F2DF703818F07F3F08F4A7C056E1D2
:10115200571BAAF4519558300EF4593030F0EFEF86
:10116200FFEF6FEF7FE777F91AC077275523B9F0C2
:10117200EE0FFF1F661F771F5A95D1F710C0772712
:10118200583028F0EF2FF62F672F5850F9CF5523FC
:1011920031F076956795F795E7955A95D1F7002046
:1011A2000AF445D15F910895689401C0E89430979C
:1011B20060407040B1F0002426F0772312F40094CE
:1011C20036D1172E7EE1112032F07A95EE0FFF1FF5
:1011D200661F111CF9CFEF2FF62F612D5F938ADF67
:1011E2005F9108954F93AF01FD01DA01AB01BC019C
:1011F200CA01402D012C142E4F910895EA0FFB1FB6
:10120200681F0895E095F0956095EF5FFF4F6F4F6F
:1012120008955F9381DF903871F150E8152604C07C
:101222005F937ADF903839F1703821F1572F591BCB
:101232002BF112F4D7DFFACF583118F0AA27BB27C7
:101242008827583028F0AB2FB82F88275850F9CF6D
:10125200552329F08695B795A7955A95D9F7502D1C
:10126200512572F0CBDF38F46795F795E7957395C2
:1012720013F420C0B7DF3EDF5F910895D8F7FBCFAC
:10128200EA1BFB0B680B51F010F40094BBDF6623E2
:1012920092F3EE0FFF1F661F7A95CBF7EE27FF271B
:1012A200662777275F910895EFEFFFEF6FE77FEFF4
:1012B2005F910895EFEFFFEF6FE77FE75F9108958A
:1012C2005F932ADF703851F3903841F30124089478
:1012D200791F23F41CF300203AF3ECCF0F921F93F3
:1012E2002F933F934F93112722279927689FA0019D
:1012F2008F9F302D410D591F6B9F300D411D591F7E
:101302008E9F27D0BF9F25D06A9F23D0BE9F1DD01E
:10131200AF9F1BD0AE9F110D291F391F491F591FA7
:10132200E32FF42F652F522F4F913F912F911F9151
:101332000F9066232AF0550FEE1FFF1F661F02C093
:1013420073954BF2CDDE5F910895100D211D391F6B
:1013520002C0200D311D491F591F08955F93DCDE25
:10136200703821F411200AF49FCFA4CF903809F4E9
:1013720095CF01240894970B1BF4D4F30020F3CFEC
:10138200792F1F932F933F934F93112411272227D5
:1013920033274427552790E2AE17BF078607410738
:1013A20030F0AE1BBF0B860B410B089401C0889432
:1013B200551F221F331F111CAA1FBB1F881F441F4A
:1013C2009A9551F7F901612D4F913F912F911F91FC
:1013D200662332F0550FEE1FFF1F661F7A9543F208
:1013E2007FDE5F91089599239AF0772342F0971751
:1013F20048F029F4AE17BF07860720F031F0989421
:101402008894089598940894089518948894089557
:101412007723C2F7971798F3A9F7EA17FB0768072C
:1014220088F399F3ECCF0024AF0DB01D0895F09529
:1014320060957095E195FF4F6F4F7F4F0895FE2F96
:10144200FF0FFF0B6F2F7F2F08956F2F660F660B15
:10145200762F0895002498E0AA0F001C0E1A10F4AB
:101462000E0E01C0A1609A95B9F7EA2FA02D08953A
:1014720039D0F0DF0EF4E19508953F934F935F93D7
:10148200002411244427552730E2AA0FBB1F881FCE
:10149200991F001C111C441F551F0E1A1F0A460BD0
:1014A200570B28F40E0E1F1E461F571F01C0A160C6
:1014B2003A9559F7FD01BC01D001CA015F914F91E4
:1014C2003F910895E894A7FF02C0A1956894E7FDB3
:1014D200E195C0DFEA2F0EF4E1950895CEDFFD011C
:1014E200BC010895E894E7FF02C0E1956894A7FF64
:1014F20004C0A19500F8039400FA0895ED91FC91BF
:1015020011970895ED91FD916D917C911397089536
:10151200E881F9816A817B810895A881B9818A81F4
:101522009B810895E883F9836A837B8308957A9384
:101532006A93FA93EA9308959A938A93BA93AA9331
:101542000895182E862F612D192E972F712D1B2E7F
:10155200BF2FF12D1A2EAE2FE12D08953097604046
:10156200704008955A934A933A932A931A930A938E
:1015720008955D814C813B812A81198108810895FA
:00000001FF
